:030000000209CF23
:0C09CF00787FE4F6D8FD758119020A1645
:100A5B0020454E54455220594F555200205041537A
:100A6B0053574F5244002050415353574F52442039
:100A7B004D41544348454400204143434553532083
:100A8B004752414E544544002057524F4E47205039
:100A9B00415353574F524400204143434553532036
:100AAB0044454E4945440020504C45415345204355
:100ABB004F4E544143540020594F555220484F44F8
:050ACB002E2E2E2E006E
:0B0C5D00050837373737370216000153
:0B0B9500120BA0C2A3C2A2C2A0D2A1FA
:100BA000E4FFFEE4FDFC0DBD00010CED64784C702B
:0C0BB000F50FBF00010EEF64504E70E71F
:010BBC002216
:100BBD00E4FDFCC3ED9FEC9E5015E4FBFA0BBB006E
:0F0BCD00010AEB64324A70F50DBD00010C80E4A3
:010BDC0022F6
:080B6C007C007D647FE87E033C
:100B7400E4FBFAC3EB9FEA9E5016900000C3E582A3
:100B84009DE5839C5003A380F40BBB00010A80E322
:010B9400223E
:100BFD008F90D2B0C2B1D2B2E4FFFE0FBF00010E92
:080C0D00EF64644E70F5C2B201
:010C150022BC
:070BDD007BFF120C487FC0F2
:100BE4008F90C2B0C2B1D2B2E4FFFE0FBF00010EBB
:080BF400EF640A4E70F5C2B275
:010BFC0022D6
:100C16007F38120BE47F0E120BE47F01120BE47F88
:090C260006120BE47F80020BE4CE
:100C4800120C2FFF600E7E00120BFD740129F9E4CF
:050C58003AFA80EC22D5
:1008F50075A0FFC280D28320840975120075133755
:100905000209C52085097512007513380209C5202D
:1009150086097512007513390209C52087097512F4
:100925000075132F0209C5D280C281208409751272
:10093500007513340209C520850875120075133535
:10094500807E20860875120075133680732087080F
:1009550075120075132A8068D281C28220840875B9
:1009650012007513318059208508751200751332F0
:10097500804E208608751200751333804320870842
:1009850075120075132D8038D282C28320840F7FA3
:10099500F47E01120BBD7F01120BE40208F82085DD
:1009A50008751200751330801720860875120075BA
:1009B500133D800C3087030208F875120075132B60
:0A09C5007FF47E01120BBDAF132278
:10080000120C167F01120BE47A0A795B120BDD7A67
:100810000A7967120C489000001208F5AE82740D38
:100820002EF8A613E5824583700C7F01120BE47F3E
:10083000207E00120BFD7F2A7E00120BFDA3E582B5
:100840006405458370D3E50DB5081CE50EB50917A1
:10085000E50FB50A12E510B50B0DE511B50C0875DD
:1008600016007517018005E4F516F517E517640104
:10087000451670227F01120BE47A0A7971120BDDA2
:100880007A0A7983120C48120AD0E4F518F519FC9B
:10089000120B6E020803E5174516600302080305F4
:1008A00019E519700205187F01120BE47BFF7A0A23
:1008B0007993120BDF7A0A79A3120C48120B6C128F
:1008C0000B74751600751701E5196403451860036C
:1008D0000208037F01120BE47BFF7A0A79B2120B44
:1008E000DF7A0A79C2120C48E519640345186003DF
:0508F00002080380F383
:100B3200E4FFFE74082FF8E6FD740D2FF8E66D60F1
:100B420007E4F514F515800B0FBF00010EEF6405E5
:100B52004E70E0E5154514700AF516F517F5147593
:090B62001501227516007517013A
:010B6B002267
:100AD000E4FBFAC2A3C2A2C2A1D2A0120B95C2A388
:100AE000C2A1C2A0D2A2120BA0C2A2C2A1C2A0D215
:100AF000A3120BA00BBB00010AEB640A4A70D412CC
:100B00000B6CE4FAFBC2A0C2A2C2A1D2A3120BA03A
:100B1000C2A3C2A1C2A0D2A2120B95C2A2C2A1C2FC
:100B2000A3D2A0120BA00BBB00010AEB640A4A700F
:010B3000D4F0
:010B310022A1
:1009DB00020800E493A3F8E493A34003F68001F22A
:1009EB0008DFF48029E493A3F85407240CC8C3331D
:1009FB00C4540F4420C8834004F456800146F6DFEC
:100A0B00E4800B0102040810204080900C5DE47E12
:100A1B00019360BCA3FF543F30E509541FFEE493E0
:100A2B00A360010ECF54C025E060A840B8E493A3A7
:100A3B00FAE493A3F8E493A3C8C582C8CAC583CAD2
:100A4B00F0A3C8C582C8CAC583CADFE9DEE780BE8A
:010C6800008B
:100C2F00BB010689828A83E0225002E722BBFE02C3
:090C3F00E32289828A83E49322F6
:00000001FF
